{
	"contractName": "Identify",
	"abi": [
		{
			"inputs": [],
			"stateMutability": "nonpayable",
			"type": "constructor"
		},
		{
			"anonymous": false,
			"inputs": [
				{
					"indexed": true,
					"internalType": "address",
					"name": "owner",
					"type": "address"
				},
				{
					"indexed": true,
					"internalType": "address",
					"name": "approved",
					"type": "address"
				},
				{
					"indexed": true,
					"internalType": "uint256",
					"name": "tokenId",
					"type": "uint256"
				}
			],
			"name": "Approval",
			"type": "event"
		},
		{
			"anonymous": false,
			"inputs": [
				{
					"indexed": true,
					"internalType": "address",
					"name": "owner",
					"type": "address"
				},
				{
					"indexed": true,
					"internalType": "address",
					"name": "operator",
					"type": "address"
				},
				{
					"indexed": false,
					"internalType": "bool",
					"name": "approved",
					"type": "bool"
				}
			],
			"name": "ApprovalForAll",
			"type": "event"
		},
		{
			"anonymous": false,
			"inputs": [
				{
					"indexed": true,
					"internalType": "address",
					"name": "previousOwner",
					"type": "address"
				},
				{
					"indexed": true,
					"internalType": "address",
					"name": "newOwner",
					"type": "address"
				}
			],
			"name": "OwnershipTransferred",
			"type": "event"
		},
		{
			"anonymous": false,
			"inputs": [
				{
					"indexed": true,
					"internalType": "address",
					"name": "from",
					"type": "address"
				},
				{
					"indexed": true,
					"internalType": "address",
					"name": "to",
					"type": "address"
				},
				{
					"indexed": true,
					"internalType": "uint256",
					"name": "tokenId",
					"type": "uint256"
				}
			],
			"name": "Transfer",
			"type": "event"
		},
		{
			"inputs": [
				{
					"internalType": "address",
					"name": "to",
					"type": "address"
				},
				{
					"internalType": "uint256",
					"name": "tokenId",
					"type": "uint256"
				}
			],
			"name": "approve",
			"outputs": [],
			"stateMutability": "nonpayable",
			"type": "function"
		},
		{
			"inputs": [
				{
					"internalType": "address",
					"name": "owner",
					"type": "address"
				}
			],
			"name": "balanceOf",
			"outputs": [
				{
					"internalType": "uint256",
					"name": "",
					"type": "uint256"
				}
			],
			"stateMutability": "view",
			"type": "function",
			"constant": true
		},
		{
			"inputs": [
				{
					"internalType": "uint256",
					"name": "tokenId",
					"type": "uint256"
				}
			],
			"name": "getApproved",
			"outputs": [
				{
					"internalType": "address",
					"name": "",
					"type": "address"
				}
			],
			"stateMutability": "view",
			"type": "function",
			"constant": true
		},
		{
			"inputs": [
				{
					"internalType": "address",
					"name": "owner",
					"type": "address"
				},
				{
					"internalType": "address",
					"name": "operator",
					"type": "address"
				}
			],
			"name": "isApprovedForAll",
			"outputs": [
				{
					"internalType": "bool",
					"name": "",
					"type": "bool"
				}
			],
			"stateMutability": "view",
			"type": "function",
			"constant": true
		},
		{
			"inputs": [],
			"name": "maxTokens",
			"outputs": [
				{
					"internalType": "uint256",
					"name": "",
					"type": "uint256"
				}
			],
			"stateMutability": "view",
			"type": "function",
			"constant": true
		},
		{
			"inputs": [],
			"name": "max_mint_per_tx",
			"outputs": [
				{
					"internalType": "uint256",
					"name": "",
					"type": "uint256"
				}
			],
			"stateMutability": "view",
			"type": "function",
			"constant": true
		},
		{
			"inputs": [
				{
					"internalType": "address",
					"name": "",
					"type": "address"
				}
			],
			"name": "mintedWallets",
			"outputs": [
				{
					"internalType": "uint256",
					"name": "",
					"type": "uint256"
				}
			],
			"stateMutability": "view",
			"type": "function",
			"constant": true
		},
		{
			"inputs": [],
			"name": "name",
			"outputs": [
				{
					"internalType": "string",
					"name": "",
					"type": "string"
				}
			],
			"stateMutability": "view",
			"type": "function",
			"constant": true
		},
		{
			"inputs": [],
			"name": "owner",
			"outputs": [
				{
					"internalType": "address",
					"name": "",
					"type": "address"
				}
			],
			"stateMutability": "view",
			"type": "function",
			"constant": true
		},
		{
			"inputs": [
				{
					"internalType": "uint256",
					"name": "tokenId",
					"type": "uint256"
				}
			],
			"name": "ownerOf",
			"outputs": [
				{
					"internalType": "address",
					"name": "",
					"type": "address"
				}
			],
			"stateMutability": "view",
			"type": "function",
			"constant": true
		},
		{
			"inputs": [],
			"name": "renounceOwnership",
			"outputs": [],
			"stateMutability": "nonpayable",
			"type": "function"
		},
		{
			"inputs": [
				{
					"internalType": "address",
					"name": "from",
					"type": "address"
				},
				{
					"internalType": "address",
					"name": "to",
					"type": "address"
				},
				{
					"internalType": "uint256",
					"name": "tokenId",
					"type": "uint256"
				}
			],
			"name": "safeTransferFrom",
			"outputs": [],
			"stateMutability": "nonpayable",
			"type": "function"
		},
		{
			"inputs": [
				{
					"internalType": "address",
					"name": "from",
					"type": "address"
				},
				{
					"internalType": "address",
					"name": "to",
					"type": "address"
				},
				{
					"internalType": "uint256",
					"name": "tokenId",
					"type": "uint256"
				},
				{
					"internalType": "bytes",
					"name": "data",
					"type": "bytes"
				}
			],
			"name": "safeTransferFrom",
			"outputs": [],
			"stateMutability": "nonpayable",
			"type": "function"
		},
		{
			"inputs": [
				{
					"internalType": "address",
					"name": "operator",
					"type": "address"
				},
				{
					"internalType": "bool",
					"name": "approved",
					"type": "bool"
				}
			],
			"name": "setApprovalForAll",
			"outputs": [],
			"stateMutability": "nonpayable",
			"type": "function"
		},
		{
			"inputs": [
				{
					"internalType": "bytes4",
					"name": "interfaceId",
					"type": "bytes4"
				}
			],
			"name": "supportsInterface",
			"outputs": [
				{
					"internalType": "bool",
					"name": "",
					"type": "bool"
				}
			],
			"stateMutability": "view",
			"type": "function",
			"constant": true
		},
		{
			"inputs": [],
			"name": "symbol",
			"outputs": [
				{
					"internalType": "string",
					"name": "",
					"type": "string"
				}
			],
			"stateMutability": "view",
			"type": "function",
			"constant": true
		},
		{
			"inputs": [],
			"name": "tokenReserve",
			"outputs": [
				{
					"internalType": "uint256",
					"name": "",
					"type": "uint256"
				}
			],
			"stateMutability": "view",
			"type": "function",
			"constant": true
		},
		{
			"inputs": [
				{
					"internalType": "uint256",
					"name": "tokenId",
					"type": "uint256"
				}
			],
			"name": "tokenURI",
			"outputs": [
				{
					"internalType": "string",
					"name": "",
					"type": "string"
				}
			],
			"stateMutability": "view",
			"type": "function",
			"constant": true
		},
		{
			"inputs": [],
			"name": "totalSupply",
			"outputs": [
				{
					"internalType": "uint256",
					"name": "",
					"type": "uint256"
				}
			],
			"stateMutability": "view",
			"type": "function",
			"constant": true
		},
		{
			"inputs": [
				{
					"internalType": "address",
					"name": "from",
					"type": "address"
				},
				{
					"internalType": "address",
					"name": "to",
					"type": "address"
				},
				{
					"internalType": "uint256",
					"name": "tokenId",
					"type": "uint256"
				}
			],
			"name": "transferFrom",
			"outputs": [],
			"stateMutability": "nonpayable",
			"type": "function"
		},
		{
			"inputs": [
				{
					"internalType": "address",
					"name": "newOwner",
					"type": "address"
				}
			],
			"name": "transferOwnership",
			"outputs": [],
			"stateMutability": "nonpayable",
			"type": "function"
		},
		{
			"inputs": [
				{
					"internalType": "uint256",
					"name": "amtToken",
					"type": "uint256"
				}
			],
			"name": "mint",
			"outputs": [],
			"stateMutability": "nonpayable",
			"type": "function"
		}
	],
	"bytecode": "0x60806040526103e8600755600160085560016009553480156200002157600080fd5b506040518060400160405280600881526020017f6964656e746966790000000000000000000000000000000000000000000000008152506040518060400160405280600281526020017f494400000000000000000000000000000000000000000000000000000000000081525081600090816200009f919062000ac5565b508060019081620000b1919062000ac5565b505050620000d4620000c86200011e60201b60201c565b6200012660201b60201c565b6000600190505b60085481116200010e57620000f8336001620001ec60201b60201c565b8080620001059062000bdb565b915050620000db565b50600854600b8190555062001003565b600033905090565b6000600660009054906101000a900473ffffffffffffffffffffffffffffffffffffffff16905081600660006101000a81548173ffffffffffffffffffffffffffffffffffffffff021916908373ffffffffffffffffffffffffffffffffffffffff1602179055508173ffffffffffffffffffffffffffffffffffffffff168173ffffffffffffffffffffffffffffffffffffffff167f8be0079c531659141344cd1fd0a4f28419497f9722a3daafe3b4186f6b6457e060405160405180910390a35050565b6200020e8282604051806020016040528060008152506200021260201b60201c565b5050565b6200022483836200028060201b60201c565b620002396000848484620004c660201b60201c565b6200027b576040517f08c379a0000000000000000000000000000000000000000000000000000000008152600401620002729062000caf565b60405180910390fd5b505050565b600073ffffffffffffffffffffffffffffffffffffffff168273ffffffffffffffffffffffffffffffffffffffff1603620002f2576040517f08c379a0000000000000000000000000000000000000000000000000000000008152600401620002e99062000d21565b60405180910390fd5b62000303816200066f60201b60201c565b1562000346576040517f08c379a00000000000000000000000000000000000000000000000000000000081526004016200033d9062000d93565b60405180910390fd5b6200035c600083836001620006b860201b60201c565b6200036d816200066f60201b60201c565b15620003b0576040517f08c379a0000000000000000000000000000000000000000000000000000000008152600401620003a79062000d93565b60405180910390fd5b6001600360008473ffffffffffffffffffffffffffffffffffffffff1673ffffffffffffffffffffffffffffffffffffffff16815260200190815260200160002060008282540192505081905550816002600083815260200190815260200160002060006101000a81548173ffffffffffffffffffffffffffffffffffffffff021916908373ffffffffffffffffffffffffffffffffffffffff160217905550808273ffffffffffffffffffffffffffffffffffffffff16600073ffffffffffffffffffffffffffffffffffffffff167fddf252ad1be2c89b69c2b068fc378daa952ba7f163c4a11628f55a4df523b3ef60405160405180910390a4620004c2600083836001620007e560201b60201c565b5050565b6000620004f48473ffffffffffffffffffffffffffffffffffffffff16620007eb60201b62000ce71760201c565b1562000662578373ffffffffffffffffffffffffffffffffffffffff1663150b7a02620005266200011e60201b60201c565b8786866040518563ffffffff1660e01b81526004016200054a949392919062000ea5565b6020604051808303816000875af19250505080156200058957506040513d601f19601f8201168201806040525081019062000586919062000f5b565b60015b62000611573d8060008114620005bc576040519150601f19603f3d011682016040523d82523d6000602084013e620005c1565b606091505b50600081510362000609576040517f08c379a0000000000000000000000000000000000000000000000000000000008152600401620006009062000caf565b60405180910390fd5b805181602001fd5b63150b7a0260e01b7bffffffffffffffffffffffffffffffffffffffffffffffffffffffff1916817bffffffffffffffffffffffffffffffffffffffffffffffffffffffff19161491505062000667565b600190505b949350505050565b60008073ffffffffffffffffffffffffffffffffffffffff1662000699836200080e60201b60201c565b73ffffffffffffffffffffffffffffffffffffffff1614159050919050565b6001811115620007df57600073ffffffffffffffffffffffffffffffffffffffff168473ffffffffffffffffffffffffffffffffffffffff1614620007505780600360008673ffffffffffffffffffffffffffffffffffffffff1673ffffffffffffffffffffffffffffffffffffffff168152602001908152602001600020600082825462000748919062000f8d565b925050819055505b600073ffffffffffffffffffffffffffffffffffffffff168373ffffffffffffffffffffffffffffffffffffffff1614620007de5780600360008573ffffffffffffffffffffffffffffffffffffffff1673ffffffffffffffffffffffffffffffffffffffff1681526020019081526020016000206000828254620007d6919062000fc8565b925050819055505b5b50505050565b50505050565b6000808273ffffffffffffffffffffffffffffffffffffffff163b119050919050565b60006002600083815260200190815260200160002060009054906101000a900473ffffffffffffffffffffffffffffffffffffffff169050919050565b600081519050919050565b7f4e487b7100000000000000000000000000000000000000000000000000000000600052604160045260246000fd5b7f4e487b7100000000000000000000000000000000000000000000000000000000600052602260045260246000fd5b60006002820490506001821680620008cd57607f821691505b602082108103620008e357620008e262000885565b5b50919050565b60008190508160005260206000209050919050565b60006020601f8301049050919050565b600082821b905092915050565b6000600883026200094d7fffffffffffffffffffffffffffffffffffffffffffffffffffffffffffffffff826200090e565b6200095986836200090e565b95508019841693508086168417925050509392505050565b6000819050919050565b6000819050919050565b6000620009a6620009a06200099a8462000971565b6200097b565b62000971565b9050919050565b6000819050919050565b620009c28362000985565b620009da620009d182620009ad565b8484546200091b565b825550505050565b600090565b620009f1620009e2565b620009fe818484620009b7565b505050565b5b8181101562000a265762000a1a600082620009e7565b60018101905062000a04565b5050565b601f82111562000a755762000a3f81620008e9565b62000a4a84620008fe565b8101602085101562000a5a578190505b62000a7262000a6985620008fe565b83018262000a03565b50505b505050565b600082821c905092915050565b600062000a9a6000198460080262000a7a565b1980831691505092915050565b600062000ab5838362000a87565b9150826002028217905092915050565b62000ad0826200084b565b67ffffffffffffffff81111562000aec5762000aeb62000856565b5b62000af88254620008b4565b62000b0582828562000a2a565b600060209050601f83116001811462000b3d576000841562000b28578287015190505b62000b34858262000aa7565b86555062000ba4565b601f19841662000b4d86620008e9565b60005b8281101562000b775784890151825560018201915060208501945060208101905062000b50565b8683101562000b97578489015162000b93601f89168262000a87565b8355505b6001600288020188555050505b505050505050565b7f4e487b7100000000000000000000000000000000000000000000000000000000600052601160045260246000fd5b600062000be88262000971565b91507fffffffffffffffffffffffffffffffffffffffffffffffffffffffffffffffff820362000c1d5762000c1c62000bac565b5b600182019050919050565b600082825260208201905092915050565b7f4552433732313a207472616e7366657220746f206e6f6e20455243373231526560008201527f63656976657220696d706c656d656e7465720000000000000000000000000000602082015250565b600062000c9760328362000c28565b915062000ca48262000c39565b604082019050919050565b6000602082019050818103600083015262000cca8162000c88565b9050919050565b7f4552433732313a206d696e7420746f20746865207a65726f2061646472657373600082015250565b600062000d0960208362000c28565b915062000d168262000cd1565b602082019050919050565b6000602082019050818103600083015262000d3c8162000cfa565b9050919050565b7f4552433732313a20746f6b656e20616c7265616479206d696e74656400000000600082015250565b600062000d7b601c8362000c28565b915062000d888262000d43565b602082019050919050565b6000602082019050818103600083015262000dae8162000d6c565b9050919050565b600073ffffffffffffffffffffffffffffffffffffffff82169050919050565b600062000de28262000db5565b9050919050565b62000df48162000dd5565b82525050565b62000e058162000971565b82525050565b600081519050919050565b600082825260208201905092915050565b60005b8381101562000e4757808201518184015260208101905062000e2a565b60008484015250505050565b6000601f19601f8301169050919050565b600062000e718262000e0b565b62000e7d818562000e16565b935062000e8f81856020860162000e27565b62000e9a8162000e53565b840191505092915050565b600060808201905062000ebc600083018762000de9565b62000ecb602083018662000de9565b62000eda604083018562000dfa565b818103606083015262000eee818462000e64565b905095945050505050565b600080fd5b60007fffffffff0000000000000000000000000000000000000000000000000000000082169050919050565b62000f358162000efe565b811462000f4157600080fd5b50565b60008151905062000f558162000f2a565b92915050565b60006020828403121562000f745762000f7362000ef9565b5b600062000f848482850162000f44565b91505092915050565b600062000f9a8262000971565b915062000fa78362000971565b925082820390508181111562000fc25762000fc162000bac565b5b92915050565b600062000fd58262000971565b915062000fe28362000971565b925082820190508082111562000ffd5762000ffc62000bac565b5b92915050565b612c6680620010136000396000f3fe608060405234801561001057600080fd5b50600436106101425760003560e01c806395d89b41116100b8578063c87b56dd1161007c578063c87b56dd14610361578063cbcb317114610391578063ccfd1ba7146103af578063e8315742146103cd578063e985e9c5146103eb578063f2fde38b1461041b57610142565b806395d89b41146102bf578063a0712d68146102dd578063a22cb465146102f9578063ada7c4ed14610315578063b88d4fde1461034557610142565b806323b872dd1161010a57806323b872dd146101ff57806342842e0e1461021b5780636352211e1461023757806370a0823114610267578063715018a6146102975780638da5cb5b146102a157610142565b806301ffc9a71461014757806306fdde0314610177578063081812fc14610195578063095ea7b3146101c557806318160ddd146101e1575b600080fd5b610161600480360381019061015c9190611d85565b610437565b60405161016e9190611dcd565b60405180910390f35b61017f610519565b60405161018c9190611e78565b60405180910390f35b6101af60048036038101906101aa9190611ed0565b6105ab565b6040516101bc9190611f3e565b60405180910390f35b6101df60048036038101906101da9190611f85565b6105f1565b005b6101e9610708565b6040516101f69190611fd4565b60405180910390f35b61021960048036038101906102149190611fef565b61070e565b005b61023560048036038101906102309190611fef565b61076e565b005b610251600480360381019061024c9190611ed0565b61078e565b60405161025e9190611f3e565b60405180910390f35b610281600480360381019061027c9190612042565b610814565b60405161028e9190611fd4565b60405180910390f35b61029f6108cb565b005b6102a96108df565b6040516102b69190611f3e565b60405180910390f35b6102c7610909565b6040516102d49190611e78565b60405180910390f35b6102f760048036038101906102f29190611ed0565b61099b565b005b610313600480360381019061030e919061209b565b610ac6565b005b61032f600480360381019061032a9190612042565b610adc565b60405161033c9190611fd4565b60405180910390f35b61035f600480360381019061035a9190612210565b610af4565b005b61037b60048036038101906103769190611ed0565b610b56565b6040516103889190611e78565b60405180910390f35b610399610bbe565b6040516103a69190611fd4565b60405180910390f35b6103b7610bc4565b6040516103c49190611fd4565b60405180910390f35b6103d5610bca565b6040516103e29190611fd4565b60405180910390f35b61040560048036038101906104009190612293565b610bd0565b6040516104129190611dcd565b60405180910390f35b61043560048036038101906104309190612042565b610c64565b005b60007f80ac58cd000000000000000000000000000000000000000000000000000000007bffffffffffffffffffffffffffffffffffffffffffffffffffffffff1916827bffffffffffffffffffffffffffffffffffffffffffffffffffffffff1916148061050257507f5b5e139f000000000000000000000000000000000000000000000000000000007bffffffffffffffffffffffffffffffffffffffffffffffffffffffff1916827bffffffffffffffffffffffffffffffffffffffffffffffffffffffff1916145b80610512575061051182610d0a565b5b9050919050565b60606000805461052890612302565b80601f016020809104026020016040519081016040528092919081815260200182805461055490612302565b80156105a15780601f10610576576101008083540402835291602001916105a1565b820191906000526020600020905b81548152906001019060200180831161058457829003601f168201915b5050505050905090565b60006105b682610d74565b6004600083815260200190815260200160002060009054906101000a900473ffffffffffffffffffffffffffffffffffffffff169050919050565b60006105fc8261078e565b90508073ffffffffffffffffffffffffffffffffffffffff168373ffffffffffffffffffffffffffffffffffffffff160361066c576040517f08c379a0000000000000000000000000000000000000000000000000000000008152600401610663906123a5565b60405180910390fd5b8073ffffffffffffffffffffffffffffffffffffffff1661068b610dbf565b73ffffffffffffffffffffffffffffffffffffffff1614806106ba57506106b9816106b4610dbf565b610bd0565b5b6106f9576040517f08c379a00000000000000000000000000000000000000000000000000000000081526004016106f090612437565b60405180910390fd5b6107038383610dc7565b505050565b600b5481565b61071f610719610dbf565b82610e80565b61075e576040517f08c379a0000000000000000000000000000000000000000000000000000000008152600401610755906124c9565b60405180910390fd5b610769838383610f15565b505050565b61078983838360405180602001604052806000815250610af4565b505050565b60008061079a8361120e565b9050600073ffffffffffffffffffffffffffffffffffffffff168173ffffffffffffffffffffffffffffffffffffffff160361080b576040517f08c379a000000000000000000000000000000000000000000000000000000000815260040161080290612535565b60405180910390fd5b80915050919050565b60008073ffffffffffffffffffffffffffffffffffffffff168273ffffffffffffffffffffffffffffffffffffffff1603610884576040517f08c379a000000000000000000000000000000000000000000000000000000000815260040161087b906125c7565b60405180910390fd5b600360008373ffffffffffffffffffffffffffffffffffffffff1673ffffffffffffffffffffffffffffffffffffffff168152602001908152602001600020549050919050565b6108d361124b565b6108dd60006112c9565b565b6000600660009054906101000a900473ffffffffffffffffffffffffffffffffffffffff16905090565b60606001805461091890612302565b80601f016020809104026020016040519081016040528092919081815260200182805461094490612302565b80156109915780601f1061096657610100808354040283529160200191610991565b820191906000526020600020905b81548152906001019060200180831161097457829003601f168201915b5050505050905090565b6007548111156109aa57600080fd5b6009548111156109b957600080fd5b600181600a60003373ffffffffffffffffffffffffffffffffffffffff1673ffffffffffffffffffffffffffffffffffffffff16815260200190815260200160002054610a069190612616565b1115610a1157600080fd5b60075481600b54610a229190612616565b1115610a2d57600080fd5b6000600190505b818111610a6557610a523382600b54610a4d9190612616565b61138f565b8080610a5d9061264a565b915050610a34565b5080600a60003373ffffffffffffffffffffffffffffffffffffffff1673ffffffffffffffffffffffffffffffffffffffff1681526020019081526020016000208190555080600b6000828254610abc9190612616565b9250508190555050565b610ad8610ad1610dbf565b83836113ad565b5050565b600a6020528060005260406000206000915090505481565b610b05610aff610dbf565b83610e80565b610b44576040517f08c379a0000000000000000000000000000000000000000000000000000000008152600401610b3b906124c9565b60405180910390fd5b610b5084848484611519565b50505050565b6060610b6182610d74565b6000610b6b611575565b90506000815111610b8b5760405180602001604052806000815250610bb6565b80610b958461158c565b604051602001610ba69291906126ce565b6040516020818303038152906040525b915050919050565b60085481565b60095481565b60075481565b6000600560008473ffffffffffffffffffffffffffffffffffffffff1673ffffffffffffffffffffffffffffffffffffffff16815260200190815260200160002060008373ffffffffffffffffffffffffffffffffffffffff1673ffffffffffffffffffffffffffffffffffffffff16815260200190815260200160002060009054906101000a900460ff16905092915050565b610c6c61124b565b600073ffffffffffffffffffffffffffffffffffffffff168173ffffffffffffffffffffffffffffffffffffffff1603610cdb576040517f08c379a0000000000000000000000000000000000000000000000000000000008152600401610cd290612764565b60405180910390fd5b610ce4816112c9565b50565b6000808273ffffffffffffffffffffffffffffffffffffffff163b119050919050565b60007f01ffc9a7000000000000000000000000000000000000000000000000000000007bffffffffffffffffffffffffffffffffffffffffffffffffffffffff1916827bffffffffffffffffffffffffffffffffffffffffffffffffffffffff1916149050919050565b610d7d8161165a565b610dbc576040517f08c379a0000000000000000000000000000000000000000000000000000000008152600401610db390612535565b60405180910390fd5b50565b600033905090565b816004600083815260200190815260200160002060006101000a81548173ffffffffffffffffffffffffffffffffffffffff021916908373ffffffffffffffffffffffffffffffffffffffff160217905550808273ffffffffffffffffffffffffffffffffffffffff16610e3a8361078e565b73ffffffffffffffffffffffffffffffffffffffff167f8c5be1e5ebec7d5bd14f71427d1e84f3dd0314c0f7b2291e5b200ac8c7c3b92560405160405180910390a45050565b600080610e8c8361078e565b90508073ffffffffffffffffffffffffffffffffffffffff168473ffffffffffffffffffffffffffffffffffffffff161480610ece5750610ecd8185610bd0565b5b80610f0c57508373ffffffffffffffffffffffffffffffffffffffff16610ef4846105ab565b73ffffffffffffffffffffffffffffffffffffffff16145b91505092915050565b8273ffffffffffffffffffffffffffffffffffffffff16610f358261078e565b73ffffffffffffffffffffffffffffffffffffffff1614610f8b576040517f08c379a0000000000000000000000000000000000000000000000000000000008152600401610f82906127f6565b60405180910390fd5b600073ffffffffffffffffffffffffffffffffffffffff168273ffffffffffffffffffffffffffffffffffffffff1603610ffa576040517f08c379a0000000000000000000000000000000000000000000000000000000008152600401610ff190612888565b60405180910390fd5b611007838383600161169b565b8273ffffffffffffffffffffffffffffffffffffffff166110278261078e565b73ffffffffffffffffffffffffffffffffffffffff161461107d576040517f08c379a0000000000000000000000000000000000000000000000000000000008152600401611074906127f6565b60405180910390fd5b6004600082815260200190815260200160002060006101000a81549073ffffffffffffffffffffffffffffffffffffffff02191690556001600360008573ffffffffffffffffffffffffffffffffffffffff1673ffffffffffffffffffffffffffffffffffffffff168152602001908152602001600020600082825403925050819055506001600360008473ffffffffffffffffffffffffffffffffffffffff1673ffffffffffffffffffffffffffffffffffffffff16815260200190815260200160002060008282540192505081905550816002600083815260200190815260200160002060006101000a81548173ffffffffffffffffffffffffffffffffffffffff021916908373ffffffffffffffffffffffffffffffffffffffff160217905550808273ffffffffffffffffffffffffffffffffffffffff168473ffffffffffffffffffffffffffffffffffffffff167fddf252ad1be2c89b69c2b068fc378daa952ba7f163c4a11628f55a4df523b3ef60405160405180910390a461120983838360016117c1565b505050565b60006002600083815260200190815260200160002060009054906101000a900473ffffffffffffffffffffffffffffffffffffffff169050919050565b611253610dbf565b73ffffffffffffffffffffffffffffffffffffffff166112716108df565b73ffffffffffffffffffffffffffffffffffffffff16146112c7576040517f08c379a00000000000000000000000000000000000000000000000000000000081526004016112be906128f4565b60405180910390fd5b565b6000600660009054906101000a900473ffffffffffffffffffffffffffffffffffffffff16905081600660006101000a81548173ffffffffffffffffffffffffffffffffffffffff021916908373ffffffffffffffffffffffffffffffffffffffff1602179055508173ffffffffffffffffffffffffffffffffffffffff168173ffffffffffffffffffffffffffffffffffffffff167f8be0079c531659141344cd1fd0a4f28419497f9722a3daafe3b4186f6b6457e060405160405180910390a35050565b6113a98282604051806020016040528060008152506117c7565b5050565b8173ffffffffffffffffffffffffffffffffffffffff168373ffffffffffffffffffffffffffffffffffffffff160361141b576040517f08c379a000000000000000000000000000000000000000000000000000000000815260040161141290612960565b60405180910390fd5b80600560008573ffffffffffffffffffffffffffffffffffffffff1673ffffffffffffffffffffffffffffffffffffffff16815260200190815260200160002060008473ffffffffffffffffffffffffffffffffffffffff1673ffffffffffffffffffffffffffffffffffffffff16815260200190815260200160002060006101000a81548160ff0219169083151502179055508173ffffffffffffffffffffffffffffffffffffffff168373ffffffffffffffffffffffffffffffffffffffff167f17307eab39ab6107e8899845ad3d59bd9653f200f220920489ca2b5937696c318360405161150c9190611dcd565b60405180910390a3505050565b611524848484610f15565b61153084848484611822565b61156f576040517f08c379a0000000000000000000000000000000000000000000000000000000008152600401611566906129f2565b60405180910390fd5b50505050565b606060405180602001604052806000815250905090565b60606000600161159b846119a9565b01905060008167ffffffffffffffff8111156115ba576115b96120e5565b5b6040519080825280601f01601f1916602001820160405280156115ec5781602001600182028036833780820191505090505b509050600082602001820190505b60011561164f578080600190039150507f3031323334353637383961626364656600000000000000000000000000000000600a86061a8153600a858161164357611642612a12565b5b049450600085036115fa575b819350505050919050565b60008073ffffffffffffffffffffffffffffffffffffffff1661167c8361120e565b73ffffffffffffffffffffffffffffffffffffffff1614159050919050565b60018111156117bb57600073ffffffffffffffffffffffffffffffffffffffff168473ffffffffffffffffffffffffffffffffffffffff161461172f5780600360008673ffffffffffffffffffffffffffffffffffffffff1673ffffffffffffffffffffffffffffffffffffffff16815260200190815260200160002060008282546117279190612a41565b925050819055505b600073ffffffffffffffffffffffffffffffffffffffff168373ffffffffffffffffffffffffffffffffffffffff16146117ba5780600360008573ffffffffffffffffffffffffffffffffffffffff1673ffffffffffffffffffffffffffffffffffffffff16815260200190815260200160002060008282546117b29190612616565b925050819055505b5b50505050565b50505050565b6117d18383611afc565b6117de6000848484611822565b61181d576040517f08c379a0000000000000000000000000000000000000000000000000000000008152600401611814906129f2565b60405180910390fd5b505050565b60006118438473ffffffffffffffffffffffffffffffffffffffff16610ce7565b1561199c578373ffffffffffffffffffffffffffffffffffffffff1663150b7a0261186c610dbf565b8786866040518563ffffffff1660e01b815260040161188e9493929190612aca565b6020604051808303816000875af19250505080156118ca57506040513d601f19601f820116820180604052508101906118c79190612b2b565b60015b61194c573d80600081146118fa576040519150601f19603f3d011682016040523d82523d6000602084013e6118ff565b606091505b506000815103611944576040517f08c379a000000000000000000000000000000000000000000000000000000000815260040161193b906129f2565b60405180910390fd5b805181602001fd5b63150b7a0260e01b7bffffffffffffffffffffffffffffffffffffffffffffffffffffffff1916817bffffffffffffffffffffffffffffffffffffffffffffffffffffffff1916149150506119a1565b600190505b949350505050565b600080600090507a184f03e93ff9f4daa797ed6e38ed64bf6a1f0100000000000000008310611a07577a184f03e93ff9f4daa797ed6e38ed64bf6a1f01000000000000000083816119fd576119fc612a12565b5b0492506040810190505b6d04ee2d6d415b85acef81000000008310611a44576d04ee2d6d415b85acef81000000008381611a3a57611a39612a12565b5b0492506020810190505b662386f26fc100008310611a7357662386f26fc100008381611a6957611a68612a12565b5b0492506010810190505b6305f5e1008310611a9c576305f5e1008381611a9257611a91612a12565b5b0492506008810190505b6127108310611ac1576127108381611ab757611ab6612a12565b5b0492506004810190505b60648310611ae45760648381611ada57611ad9612a12565b5b0492506002810190505b600a8310611af3576001810190505b80915050919050565b600073ffffffffffffffffffffffffffffffffffffffff168273ffffffffffffffffffffffffffffffffffffffff1603611b6b576040517f08c379a0000000000000000000000000000000000000000000000000000000008152600401611b6290612ba4565b60405180910390fd5b611b748161165a565b15611bb4576040517f08c379a0000000000000000000000000000000000000000000000000000000008152600401611bab90612c10565b60405180910390fd5b611bc260008383600161169b565b611bcb8161165a565b15611c0b576040517f08c379a0000000000000000000000000000000000000000000000000000000008152600401611c0290612c10565b60405180910390fd5b6001600360008473ffffffffffffffffffffffffffffffffffffffff1673ffffffffffffffffffffffffffffffffffffffff16815260200190815260200160002060008282540192505081905550816002600083815260200190815260200160002060006101000a81548173ffffffffffffffffffffffffffffffffffffffff021916908373ffffffffffffffffffffffffffffffffffffffff160217905550808273ffffffffffffffffffffffffffffffffffffffff16600073ffffffffffffffffffffffffffffffffffffffff167fddf252ad1be2c89b69c2b068fc378daa952ba7f163c4a11628f55a4df523b3ef60405160405180910390a4611d156000838360016117c1565b5050565b6000604051905090565b600080fd5b600080fd5b60007fffffffff0000000000000000000000000000000000000000000000000000000082169050919050565b611d6281611d2d565b8114611d6d57600080fd5b50565b600081359050611d7f81611d59565b92915050565b600060208284031215611d9b57611d9a611d23565b5b6000611da984828501611d70565b91505092915050565b60008115159050919050565b611dc781611db2565b82525050565b6000602082019050611de26000830184611dbe565b92915050565b600081519050919050565b600082825260208201905092915050565b60005b83811015611e22578082015181840152602081019050611e07565b60008484015250505050565b6000601f19601f8301169050919050565b6000611e4a82611de8565b611e548185611df3565b9350611e64818560208601611e04565b611e6d81611e2e565b840191505092915050565b60006020820190508181036000830152611e928184611e3f565b905092915050565b6000819050919050565b611ead81611e9a565b8114611eb857600080fd5b50565b600081359050611eca81611ea4565b92915050565b600060208284031215611ee657611ee5611d23565b5b6000611ef484828501611ebb565b91505092915050565b600073ffffffffffffffffffffffffffffffffffffffff82169050919050565b6000611f2882611efd565b9050919050565b611f3881611f1d565b82525050565b6000602082019050611f536000830184611f2f565b92915050565b611f6281611f1d565b8114611f6d57600080fd5b50565b600081359050611f7f81611f59565b92915050565b60008060408385031215611f9c57611f9b611d23565b5b6000611faa85828601611f70565b9250506020611fbb85828601611ebb565b9150509250929050565b611fce81611e9a565b82525050565b6000602082019050611fe96000830184611fc5565b92915050565b60008060006060848603121561200857612007611d23565b5b600061201686828701611f70565b935050602061202786828701611f70565b925050604061203886828701611ebb565b9150509250925092565b60006020828403121561205857612057611d23565b5b600061206684828501611f70565b91505092915050565b61207881611db2565b811461208357600080fd5b50565b6000813590506120958161206f565b92915050565b600080604083850312156120b2576120b1611d23565b5b60006120c085828601611f70565b92505060206120d185828601612086565b9150509250929050565b600080fd5b600080fd5b7f4e487b7100000000000000000000000000000000000000000000000000000000600052604160045260246000fd5b61211d82611e2e565b810181811067ffffffffffffffff8211171561213c5761213b6120e5565b5b80604052505050565b600061214f611d19565b905061215b8282612114565b919050565b600067ffffffffffffffff82111561217b5761217a6120e5565b5b61218482611e2e565b9050602081019050919050565b82818337600083830152505050565b60006121b36121ae84612160565b612145565b9050828152602081018484840111156121cf576121ce6120e0565b5b6121da848285612191565b509392505050565b600082601f8301126121f7576121f66120db565b5b81356122078482602086016121a0565b91505092915050565b6000806000806080858703121561222a57612229611d23565b5b600061223887828801611f70565b945050602061224987828801611f70565b935050604061225a87828801611ebb565b925050606085013567ffffffffffffffff81111561227b5761227a611d28565b5b612287878288016121e2565b91505092959194509250565b600080604083850312156122aa576122a9611d23565b5b60006122b885828601611f70565b92505060206122c985828601611f70565b9150509250929050565b7f4e487b7100000000000000000000000000000000000000000000000000000000600052602260045260246000fd5b6000600282049050600182168061231a57607f821691505b60208210810361232d5761232c6122d3565b5b50919050565b7f4552433732313a20617070726f76616c20746f2063757272656e74206f776e6560008201527f7200000000000000000000000000000000000000000000000000000000000000602082015250565b600061238f602183611df3565b915061239a82612333565b604082019050919050565b600060208201905081810360008301526123be81612382565b9050919050565b7f4552433732313a20617070726f76652063616c6c6572206973206e6f7420746f60008201527f6b656e206f776e6572206f7220617070726f76656420666f7220616c6c000000602082015250565b6000612421603d83611df3565b915061242c826123c5565b604082019050919050565b6000602082019050818103600083015261245081612414565b9050919050565b7f4552433732313a2063616c6c6572206973206e6f7420746f6b656e206f776e6560008201527f72206f7220617070726f76656400000000000000000000000000000000000000602082015250565b60006124b3602d83611df3565b91506124be82612457565b604082019050919050565b600060208201905081810360008301526124e2816124a6565b9050919050565b7f4552433732313a20696e76616c696420746f6b656e2049440000000000000000600082015250565b600061251f601883611df3565b915061252a826124e9565b602082019050919050565b6000602082019050818103600083015261254e81612512565b9050919050565b7f4552433732313a2061646472657373207a65726f206973206e6f74206120766160008201527f6c6964206f776e65720000000000000000000000000000000000000000000000602082015250565b60006125b1602983611df3565b91506125bc82612555565b604082019050919050565b600060208201905081810360008301526125e0816125a4565b9050919050565b7f4e487b7100000000000000000000000000000000000000000000000000000000600052601160045260246000fd5b600061262182611e9a565b915061262c83611e9a565b9250828201905080821115612644576126436125e7565b5b92915050565b600061265582611e9a565b91507fffffffffffffffffffffffffffffffffffffffffffffffffffffffffffffffff8203612687576126866125e7565b5b600182019050919050565b600081905092915050565b60006126a882611de8565b6126b28185612692565b93506126c2818560208601611e04565b80840191505092915050565b60006126da828561269d565b91506126e6828461269d565b91508190509392505050565b7f4f776e61626c653a206e6577206f776e657220697320746865207a65726f206160008201527f6464726573730000000000000000000000000000000000000000000000000000602082015250565b600061274e602683611df3565b9150612759826126f2565b604082019050919050565b6000602082019050818103600083015261277d81612741565b9050919050565b7f4552433732313a207472616e736665722066726f6d20696e636f72726563742060008201527f6f776e6572000000000000000000000000000000000000000000000000000000602082015250565b60006127e0602583611df3565b91506127eb82612784565b604082019050919050565b6000602082019050818103600083015261280f816127d3565b9050919050565b7f4552433732313a207472616e7366657220746f20746865207a65726f2061646460008201527f7265737300000000000000000000000000000000000000000000000000000000602082015250565b6000612872602483611df3565b915061287d82612816565b604082019050919050565b600060208201905081810360008301526128a181612865565b9050919050565b7f4f776e61626c653a2063616c6c6572206973206e6f7420746865206f776e6572600082015250565b60006128de602083611df3565b91506128e9826128a8565b602082019050919050565b6000602082019050818103600083015261290d816128d1565b9050919050565b7f4552433732313a20617070726f766520746f2063616c6c657200000000000000600082015250565b600061294a601983611df3565b915061295582612914565b602082019050919050565b600060208201905081810360008301526129798161293d565b9050919050565b7f4552433732313a207472616e7366657220746f206e6f6e20455243373231526560008201527f63656976657220696d706c656d656e7465720000000000000000000000000000602082015250565b60006129dc603283611df3565b91506129e782612980565b604082019050919050565b60006020820190508181036000830152612a0b816129cf565b9050919050565b7f4e487b7100000000000000000000000000000000000000000000000000000000600052601260045260246000fd5b6000612a4c82611e9a565b9150612a5783611e9a565b9250828203905081811115612a6f57612a6e6125e7565b5b92915050565b600081519050919050565b600082825260208201905092915050565b6000612a9c82612a75565b612aa68185612a80565b9350612ab6818560208601611e04565b612abf81611e2e565b840191505092915050565b6000608082019050612adf6000830187611f2f565b612aec6020830186611f2f565b612af96040830185611fc5565b8181036060830152612b0b8184612a91565b905095945050505050565b600081519050612b2581611d59565b92915050565b600060208284031215612b4157612b40611d23565b5b6000612b4f84828501612b16565b91505092915050565b7f4552433732313a206d696e7420746f20746865207a65726f2061646472657373600082015250565b6000612b8e602083611df3565b9150612b9982612b58565b602082019050919050565b60006020820190508181036000830152612bbd81612b81565b9050919050565b7f4552433732313a20746f6b656e20616c7265616479206d696e74656400000000600082015250565b6000612bfa601c83611df3565b9150612c0582612bc4565b602082019050919050565b60006020820190508181036000830152612c2981612bed565b905091905056fea26469706673582212203ae1cec6868b7940693717aa5e074d91c81c505f9100c56879c1e69df29d034264736f6c63430008110033",
	"immutableReferences": {},
	"source": "pragma solidity ^0.8.0; //SPDX-License-Identifier: UNLICENSED\n\n// Import the openzepplin contracts\nimport \"@openzeppelin/contracts/token/ERC721/ERC721.sol\";\nimport \"@openzeppelin/contracts/access/Ownable.sol\";\n\ncontract Identify is ERC721, Ownable {\n    \n    uint256 public maxTokens = 1000;\n    uint256 public tokenReserve = 1;\n    uint256 public max_mint_per_tx = 1;\n\n    mapping(address => uint256) public mintedWallets;\n    uint256 public totalSupply;\n\n\n    constructor() ERC721('identify', 'ID') {\n        for(uint256 i = 1; i <= tokenReserve; i++) {\n            _safeMint(msg.sender, 1);\n        }\n        totalSupply = tokenReserve;\n    }\n\n    function mint(uint256 amtToken) external {\n        require(amtToken <= maxTokens);\n        require(amtToken <= max_mint_per_tx);\n        require(mintedWallets[msg.sender] + amtToken <= 1);\n        require(totalSupply + amtToken <= maxTokens);\n        for(uint256 i = 1; i <= amtToken; i++) {\n            _safeMint(msg.sender, totalSupply + i);\n        }\n        mintedWallets[msg.sender] = amtToken;\n        totalSupply += amtToken;\n    } \n}\n",
	"sourcePath": "/home/eibrahim/Desktop/hayorgithub/identifyContract/contracts/identifycontract.sol",
	"compiler": {
		"name": "solc",
		"version": "0.8.17+commit.8df45f5f.Emscripten.clang"
	},
	"schemaVersion": "3.4.11",
	"updatedAt": "2022-12-14T08:02:25.988Z",
	"networkType": "ethereum",
	"devdoc": {
		"kind": "dev",
		"methods": {
			"approve(address,uint256)": {
				"details": "See {IERC721-approve}."
			},
			"balanceOf(address)": {
				"details": "See {IERC721-balanceOf}."
			},
			"getApproved(uint256)": {
				"details": "See {IERC721-getApproved}."
			},
			"isApprovedForAll(address,address)": {
				"details": "See {IERC721-isApprovedForAll}."
			},
			"name()": {
				"details": "See {IERC721Metadata-name}."
			},
			"owner()": {
				"details": "Returns the address of the current owner."
			},
			"ownerOf(uint256)": {
				"details": "See {IERC721-ownerOf}."
			},
			"renounceOwnership()": {
				"details": "Leaves the contract without owner. It will not be possible to call `onlyOwner` functions anymore. Can only be called by the current owner. NOTE: Renouncing ownership will leave the contract without an owner, thereby removing any functionality that is only available to the owner."
			},
			"safeTransferFrom(address,address,uint256)": {
				"details": "See {IERC721-safeTransferFrom}."
			},
			"safeTransferFrom(address,address,uint256,bytes)": {
				"details": "See {IERC721-safeTransferFrom}."
			},
			"setApprovalForAll(address,bool)": {
				"details": "See {IERC721-setApprovalForAll}."
			},
			"supportsInterface(bytes4)": {
				"details": "See {IERC165-supportsInterface}."
			},
			"symbol()": {
				"details": "See {IERC721Metadata-symbol}."
			},
			"tokenURI(uint256)": {
				"details": "See {IERC721Metadata-tokenURI}."
			},
			"transferFrom(address,address,uint256)": {
				"details": "See {IERC721-transferFrom}."
			},
			"transferOwnership(address)": {
				"details": "Transfers ownership of the contract to a new account (`newOwner`). Can only be called by the current owner."
			}
		},
		"version": 1
	},
	"userdoc": {
		"kind": "user",
		"methods": {},
		"version": 1
	}
}